{
  "contractName": "EnySaTsiaVoting",
  "abi": [
    {
      "constant": true,
      "inputs": [],
      "name": "name",
      "outputs": [
        {
          "name": "",
          "type": "bytes"
        }
      ],
      "payable": false,
      "stateMutability": "view",
      "type": "function",
      "signature": "0x06fdde03"
    },
    {
      "constant": true,
      "inputs": [
        {
          "name": "",
          "type": "address"
        },
        {
          "name": "",
          "type": "bytes32"
        }
      ],
      "name": "votes",
      "outputs": [
        {
          "name": "",
          "type": "bytes"
        }
      ],
      "payable": false,
      "stateMutability": "view",
      "type": "function",
      "signature": "0x1db5ade8"
    },
    {
      "constant": true,
      "inputs": [
        {
          "name": "",
          "type": "uint256"
        }
      ],
      "name": "questions",
      "outputs": [
        {
          "name": "",
          "type": "bytes"
        }
      ],
      "payable": false,
      "stateMutability": "view",
      "type": "function",
      "signature": "0x31b1b978"
    },
    {
      "constant": true,
      "inputs": [],
      "name": "sessionOpen",
      "outputs": [
        {
          "name": "",
          "type": "bool"
        }
      ],
      "payable": false,
      "stateMutability": "view",
      "type": "function",
      "signature": "0x48619955"
    },
    {
      "constant": true,
      "inputs": [
        {
          "name": "",
          "type": "bytes32"
        }
      ],
      "name": "voteOpen",
      "outputs": [
        {
          "name": "",
          "type": "bool"
        }
      ],
      "payable": false,
      "stateMutability": "view",
      "type": "function",
      "signature": "0x6ae9980b"
    },
    {
      "constant": false,
      "inputs": [],
      "name": "renounceOwnership",
      "outputs": [],
      "payable": false,
      "stateMutability": "nonpayable",
      "type": "function",
      "signature": "0x715018a6"
    },
    {
      "constant": true,
      "inputs": [],
      "name": "owner",
      "outputs": [
        {
          "name": "",
          "type": "address"
        }
      ],
      "payable": false,
      "stateMutability": "view",
      "type": "function",
      "signature": "0x8da5cb5b"
    },
    {
      "constant": true,
      "inputs": [],
      "name": "isOwner",
      "outputs": [
        {
          "name": "",
          "type": "bool"
        }
      ],
      "payable": false,
      "stateMutability": "view",
      "type": "function",
      "signature": "0x8f32d59b"
    },
    {
      "constant": false,
      "inputs": [
        {
          "name": "newOwner",
          "type": "address"
        }
      ],
      "name": "transferOwnership",
      "outputs": [],
      "payable": false,
      "stateMutability": "nonpayable",
      "type": "function",
      "signature": "0xf2fde38b"
    },
    {
      "inputs": [
        {
          "name": "_name",
          "type": "bytes"
        }
      ],
      "payable": false,
      "stateMutability": "nonpayable",
      "type": "constructor",
      "signature": "constructor"
    },
    {
      "anonymous": false,
      "inputs": [
        {
          "indexed": true,
          "name": "session",
          "type": "bytes32"
        },
        {
          "indexed": true,
          "name": "question",
          "type": "bytes32"
        }
      ],
      "name": "StartVote",
      "type": "event",
      "signature": "0xf71d47e39319b931c8ad8242d005ccac933bd0555db6ac7c991bfb3950617272"
    },
    {
      "anonymous": false,
      "inputs": [
        {
          "indexed": true,
          "name": "session",
          "type": "bytes32"
        },
        {
          "indexed": true,
          "name": "question",
          "type": "bytes32"
        }
      ],
      "name": "CloseVote",
      "type": "event",
      "signature": "0x42649a57ad6842f4d9bf2ba99df4fbbb1c85f4bd6967450a8e5fbf71b6b76eba"
    },
    {
      "anonymous": false,
      "inputs": [
        {
          "indexed": true,
          "name": "session",
          "type": "bytes32"
        }
      ],
      "name": "StartSession",
      "type": "event",
      "signature": "0x8eb8092e052baa9d1c120ae56039bcf6abe9a3429198dec2285c4a9872827de6"
    },
    {
      "anonymous": false,
      "inputs": [
        {
          "indexed": true,
          "name": "session",
          "type": "bytes32"
        }
      ],
      "name": "CloseSession",
      "type": "event",
      "signature": "0xbec2490dd1b2ba1b237a17fae9a2d7827f433223aba67edb5267c4779678399b"
    },
    {
      "anonymous": false,
      "inputs": [
        {
          "indexed": true,
          "name": "session",
          "type": "bytes32"
        },
        {
          "indexed": true,
          "name": "question",
          "type": "bytes32"
        },
        {
          "indexed": false,
          "name": "decision",
          "type": "bytes"
        }
      ],
      "name": "Vote",
      "type": "event",
      "signature": "0xd835a4b886370fb3f6a61a166e0aa61ba92fe711f8d3e5d1b80fdc37fb6559c2"
    },
    {
      "anonymous": false,
      "inputs": [
        {
          "indexed": true,
          "name": "session",
          "type": "bytes32"
        },
        {
          "indexed": true,
          "name": "question",
          "type": "bytes32"
        }
      ],
      "name": "CreateQuestion",
      "type": "event",
      "signature": "0xeee58f8d2ba34b87921ea549de4a12b9212f077b288dfd201b161be68cc5605c"
    },
    {
      "anonymous": false,
      "inputs": [
        {
          "indexed": true,
          "name": "previousOwner",
          "type": "address"
        },
        {
          "indexed": true,
          "name": "newOwner",
          "type": "address"
        }
      ],
      "name": "OwnershipTransferred",
      "type": "event",
      "signature": "0x8be0079c531659141344cd1fd0a4f28419497f9722a3daafe3b4186f6b6457e0"
    },
    {
      "constant": true,
      "inputs": [
        {
          "name": "question",
          "type": "bytes"
        }
      ],
      "name": "isValidQuestion",
      "outputs": [
        {
          "name": "",
          "type": "bool"
        }
      ],
      "payable": false,
      "stateMutability": "view",
      "type": "function",
      "signature": "0x241e8c3c"
    },
    {
      "constant": false,
      "inputs": [
        {
          "name": "_name",
          "type": "bytes"
        }
      ],
      "name": "changeSessionName",
      "outputs": [],
      "payable": false,
      "stateMutability": "nonpayable",
      "type": "function",
      "signature": "0xb236a0d6"
    },
    {
      "constant": false,
      "inputs": [],
      "name": "startSession",
      "outputs": [],
      "payable": false,
      "stateMutability": "nonpayable",
      "type": "function",
      "signature": "0xfe0ae165"
    },
    {
      "constant": false,
      "inputs": [],
      "name": "closeSession",
      "outputs": [],
      "payable": false,
      "stateMutability": "nonpayable",
      "type": "function",
      "signature": "0x06f4bcbf"
    },
    {
      "constant": false,
      "inputs": [
        {
          "name": "question",
          "type": "bytes"
        }
      ],
      "name": "createQuestion",
      "outputs": [],
      "payable": false,
      "stateMutability": "nonpayable",
      "type": "function",
      "signature": "0x6243d391"
    },
    {
      "constant": false,
      "inputs": [
        {
          "name": "question",
          "type": "bytes"
        },
        {
          "name": "sentense",
          "type": "bytes"
        }
      ],
      "name": "changeQuestion",
      "outputs": [],
      "payable": false,
      "stateMutability": "nonpayable",
      "type": "function",
      "signature": "0xeb81cc3c"
    },
    {
      "constant": false,
      "inputs": [
        {
          "name": "question",
          "type": "bytes"
        }
      ],
      "name": "startVote",
      "outputs": [],
      "payable": false,
      "stateMutability": "nonpayable",
      "type": "function",
      "signature": "0x8816864a"
    },
    {
      "constant": false,
      "inputs": [
        {
          "name": "question",
          "type": "bytes"
        }
      ],
      "name": "closeVote",
      "outputs": [],
      "payable": false,
      "stateMutability": "nonpayable",
      "type": "function",
      "signature": "0xd18c24a9"
    },
    {
      "constant": false,
      "inputs": [
        {
          "name": "decision",
          "type": "bytes"
        },
        {
          "name": "question",
          "type": "bytes"
        }
      ],
      "name": "vote",
      "outputs": [],
      "payable": false,
      "stateMutability": "nonpayable",
      "type": "function",
      "signature": "0x728b30d0"
    },
    {
      "constant": true,
      "inputs": [],
      "name": "countQuestions",
      "outputs": [
        {
          "name": "",
          "type": "uint256"
        }
      ],
      "payable": false,
      "stateMutability": "view",
      "type": "function",
      "signature": "0x79bf9bcd"
    }
  ],
  "bytecode": "0x60806040523480156200001157600080fd5b506040516200261e3803806200261e833981018060405260208110156200003757600080fd5b8101908080516401000000008111156200005057600080fd5b828101905060208101848111156200006757600080fd5b81518560018202830111640100000000821117156200008557600080fd5b5050929190505050336000806101000a81548173ffffffffffffffffffffffffffffffffffffffff021916908373ffffffffffffffffffffffffffffffffffffffff1602179055506000809054906101000a900473ffffffffffffffffffffffffffffffffffffffff1673ffffffffffffffffffffffffffffffffffffffff16600073ffffffffffffffffffffffffffffffffffffffff167f8be0079c531659141344cd1fd0a4f28419497f9722a3daafe3b4186f6b6457e060405160405180910390a380600190805190602001906200016192919062000169565b505062000218565b828054600181600116156101000203166002900490600052602060002090601f016020900481019282601f10620001ac57805160ff1916838001178555620001dd565b82800160010185558215620001dd579182015b82811115620001dc578251825591602001919060010190620001bf565b5b509050620001ec9190620001f0565b5090565b6200021591905b8082111562000211576000816000905550600101620001f7565b5090565b90565b6123f680620002286000396000f3fe608060405260043610610107576000357c0100000000000000000000000000000000000000000000000000000000900463ffffffff16806306f4bcbf1461010c57806306fdde03146101235780631db5ade8146101b3578063241e8c3c1461028757806331b1b97814610367578063486199551461041b5780636243d3911461044a5780636ae9980b14610512578063715018a614610565578063728b30d01461057c57806379bf9bcd146106db5780638816864a146107065780638da5cb5b146107ce5780638f32d59b14610825578063b236a0d614610854578063d18c24a91461091c578063eb81cc3c146109e4578063f2fde38b14610b43578063fe0ae16514610b94575b600080fd5b34801561011857600080fd5b50610121610bab565b005b34801561012f57600080fd5b50610138610cae565b6040518080602001828103825283818151815260200191508051906020019080838360005b8381101561017857808201518184015260208101905061015d565b50505050905090810190601f1680156101a55780820380516001836020036101000a031916815260200191505b509250505060405180910390f35b3480156101bf57600080fd5b5061020c600480360360408110156101d657600080fd5b81019080803573ffffffffffffffffffffffffffffffffffffffff16906020019092919080359060200190929190505050610d4c565b6040518080602001828103825283818151815260200191508051906020019080838360005b8381101561024c578082015181840152602081019050610231565b50505050905090810190601f1680156102795780820380516001836020036101000a031916815260200191505b509250505060405180910390f35b34801561029357600080fd5b5061034d600480360360208110156102aa57600080fd5b81019080803590602001906401000000008111156102c757600080fd5b8201836020820111156102d957600080fd5b803590602001918460018302840111640100000000831117156102fb57600080fd5b91908080601f016020809104026020016040519081016040528093929190818152602001838380828437600081840152601f19601f820116905080830192505050505050509192919290505050610e09565b604051808215151515815260200191505060405180910390f35b34801561037357600080fd5b506103a06004803603602081101561038a57600080fd5b8101908080359060200190929190505050610fa4565b6040518080602001828103825283818151815260200191508051906020019080838360005b838110156103e05780820151818401526020810190506103c5565b50505050905090810190601f16801561040d5780820380516001836020036101000a031916815260200191505b509250505060405180910390f35b34801561042757600080fd5b5061043061105f565b604051808215151515815260200191505060405180910390f35b34801561045657600080fd5b506105106004803603602081101561046d57600080fd5b810190808035906020019064010000000081111561048a57600080fd5b82018360208201111561049c57600080fd5b803590602001918460018302840111640100000000831117156104be57600080fd5b91908080601f016020809104026020016040519081016040528093929190818152602001838380828437600081840152601f19601f820116905080830192505050505050509192919290505050611072565b005b34801561051e57600080fd5b5061054b6004803603602081101561053557600080fd5b810190808035906020019092919050505061133d565b604051808215151515815260200191505060405180910390f35b34801561057157600080fd5b5061057a61135d565b005b34801561058857600080fd5b506106d96004803603604081101561059f57600080fd5b81019080803590602001906401000000008111156105bc57600080fd5b8201836020820111156105ce57600080fd5b803590602001918460018302840111640100000000831117156105f057600080fd5b91908080601f016020809104026020016040519081016040528093929190818152602001838380828437600081840152601f19601f8201169050808301925050505050505091929192908035906020019064010000000081111561065357600080fd5b82018360208201111561066557600080fd5b8035906020019184600183028401116401000000008311171561068757600080fd5b91908080601f016020809104026020016040519081016040528093929190818152602001838380828437600081840152601f19601f82011690508083019250505050505050919291929050505061142f565b005b3480156106e757600080fd5b506106f06118d4565b6040518082815260200191505060405180910390f35b34801561071257600080fd5b506107cc6004803603602081101561072957600080fd5b810190808035906020019064010000000081111561074657600080fd5b82018360208201111561075857600080fd5b8035906020019184600183028401116401000000008311171561077a57600080fd5b91908080601f016020809104026020016040519081016040528093929190818152602001838380828437600081840152601f19601f8201169050808301925050505050505091929192905050506118e1565b005b3480156107da57600080fd5b506107e3611bb9565b604051808273ffffffffffffffffffffffffffffffffffffffff1673ffffffffffffffffffffffffffffffffffffffff16815260200191505060405180910390f35b34801561083157600080fd5b5061083a611be2565b604051808215151515815260200191505060405180910390f35b34801561086057600080fd5b5061091a6004803603602081101561087757600080fd5b810190808035906020019064010000000081111561089457600080fd5b8201836020820111156108a657600080fd5b803590602001918460018302840111640100000000831117156108c857600080fd5b91908080601f016020809104026020016040519081016040528093929190818152602001838380828437600081840152601f19601f820116905080830192505050505050509192919290505050611c39565b005b34801561092857600080fd5b506109e26004803603602081101561093f57600080fd5b810190808035906020019064010000000081111561095c57600080fd5b82018360208201111561096e57600080fd5b8035906020019184600183028401116401000000008311171561099057600080fd5b91908080601f016020809104026020016040519081016040528093929190818152602001838380828437600081840152601f19601f820116905080830192505050505050509192919290505050611c66565b005b3480156109f057600080fd5b50610b4160048036036040811015610a0757600080fd5b8101908080359060200190640100000000811115610a2457600080fd5b820183602082011115610a3657600080fd5b80359060200191846001830284011164010000000083111715610a5857600080fd5b91908080601f016020809104026020016040519081016040528093929190818152602001838380828437600081840152601f19601f82011690508083019250505050505050919291929080359060200190640100000000811115610abb57600080fd5b820183602082011115610acd57600080fd5b80359060200191846001830284011164010000000083111715610aef57600080fd5b91908080601f016020809104026020016040519081016040528093929190818152602001838380828437600081840152601f19601f820116905080830192505050505050509192919290505050611f3e565b005b348015610b4f57600080fd5b50610b9260048036036020811015610b6657600080fd5b81019080803573ffffffffffffffffffffffffffffffffffffffff169060200190929190505050612109565b005b348015610ba057600080fd5b50610ba9612128565b005b610bb3611be2565b1515610bbe57600080fd5b6000600260006101000a81548160ff021916908315150217905550600260016040518082805460018160011615610100020316600290048015610c385780601f10610c16576101008083540402835291820191610c38565b820191906000526020600020905b815481529060010190602001808311610c24575b5050915050602060405180830381855afa158015610c5a573d6000803e3d6000fd5b5050506040513d6020811015610c6f57600080fd5b81019080805190602001909291905050507fbec2490dd1b2ba1b237a17fae9a2d7827f433223aba67edb5267c4779678399b60405160405180910390a2565b60018054600181600116156101000203166002900480601f016020809104026020016040519081016040528092919081815260200182805460018160011615610100020316600290048015610d445780601f10610d1957610100808354040283529160200191610d44565b820191906000526020600020905b815481529060010190602001808311610d2757829003601f168201915b505050505081565b6005602052816000526040600020602052806000526040600020600091509150508054600181600116156101000203166002900480601f016020809104026020016040519081016040528092919081815260200182805460018160011615610100020316600290048015610e015780601f10610dd657610100808354040283529160200191610e01565b820191906000526020600020905b815481529060010190602001808311610de457829003601f168201915b505050505081565b600080600090505b600380549050811015610f99576002836040518082805190602001908083835b602083101515610e565780518252602082019150602081019050602083039250610e31565b6001836020036101000a038019825116818451168082178552505050505050905001915050602060405180830381855afa158015610e98573d6000803e3d6000fd5b5050506040513d6020811015610ead57600080fd5b81019080805190602001909291905050506002600383815481101515610ecf57fe5b906000526020600020016040518082805460018160011615610100020316600290048015610f345780601f10610f12576101008083540402835291820191610f34565b820191906000526020600020905b815481529060010190602001808311610f20575b5050915050602060405180830381855afa158015610f56573d6000803e3d6000fd5b5050506040513d6020811015610f6b57600080fd5b81019080805190602001909291905050501415610f8c576000915050610f9f565b8080600101915050610e11565b50600190505b919050565b600381815481101515610fb357fe5b906000526020600020016000915090508054600181600116156101000203166002900480601f0160208091040260200160405190810160405280929190818152602001828054600181600116156101000203166002900480156110575780601f1061102c57610100808354040283529160200191611057565b820191906000526020600020905b81548152906001019060200180831161103a57829003601f168201915b505050505081565b600260009054906101000a900460ff1681565b61107a611be2565b151561108557600080fd5b600260009054906101000a900460ff161515611109576040517f08c379a00000000000000000000000000000000000000000000000000000000081526004018080602001828103825260158152602001807f506c656173652073746172742073657373696f6e21000000000000000000000081525060200191505060405180910390fd5b8061111381610e09565b1515611187576040517f08c379a000000000000000000000000000000000000000000000000000000000815260040180806020018281038252601d8152602001807f54686973205175657374696f6e20616c7265616479206578697374732100000081525060200191505060405180910390fd5b60038290806001815401808255809150509060018203906000526020600020016000909192909190915090805190602001906111c4929190612325565b50506002826040518082805190602001908083835b6020831015156111fe57805182526020820191506020810190506020830392506111d9565b6001836020036101000a038019825116818451168082178552505050505050905001915050602060405180830381855afa158015611240573d6000803e3d6000fd5b5050506040513d602081101561125557600080fd5b81019080805190602001909291905050506002600160405180828054600181600116156101000203166002900480156112c55780601f106112a35761010080835404028352918201916112c5565b820191906000526020600020905b8154815290600101906020018083116112b1575b5050915050602060405180830381855afa1580156112e7573d6000803e3d6000fd5b5050506040513d60208110156112fc57600080fd5b81019080805190602001909291905050507feee58f8d2ba34b87921ea549de4a12b9212f077b288dfd201b161be68cc5605c60405160405180910390a35050565b60046020528060005260406000206000915054906101000a900460ff1681565b611365611be2565b151561137057600080fd5b600073ffffffffffffffffffffffffffffffffffffffff166000809054906101000a900473ffffffffffffffffffffffffffffffffffffffff1673ffffffffffffffffffffffffffffffffffffffff167f8be0079c531659141344cd1fd0a4f28419497f9722a3daafe3b4186f6b6457e060405160405180910390a360008060006101000a81548173ffffffffffffffffffffffffffffffffffffffff021916908373ffffffffffffffffffffffffffffffffffffffff160217905550565b600260009054906101000a900460ff1615156114b3576040517f08c379a00000000000000000000000000000000000000000000000000000000081526004018080602001828103825260158152602001807f506c656173652073746172742073657373696f6e21000000000000000000000081525060200191505060405180910390fd5b80600460006002836040518082805190602001908083835b6020831015156114f057805182526020820191506020810190506020830392506114cb565b6001836020036101000a038019825116818451168082178552505050505050905001915050602060405180830381855afa158015611532573d6000803e3d6000fd5b5050506040513d602081101561154757600080fd5b8101908080519060200190929190505050815260200190815260200160002060009054906101000a900460ff1615156115e8576040517f08c379a00000000000000000000000000000000000000000000000000000000081526004018080602001828103825260128152602001807f506c6561736520737461727420766f746521000000000000000000000000000081525060200191505060405180910390fd5b82600560003373ffffffffffffffffffffffffffffffffffffffff1673ffffffffffffffffffffffffffffffffffffffff16815260200190815260200160002060006002856040518082805190602001908083835b602083101515611662578051825260208201915060208101905060208303925061163d565b6001836020036101000a038019825116818451168082178552505050505050905001915050602060405180830381855afa1580156116a4573d6000803e3d6000fd5b5050506040513d60208110156116b957600080fd5b8101908080519060200190929190505050815260200190815260200160002090805190602001906116eb929190612325565b506002826040518082805190602001908083835b60208310151561172457805182526020820191506020810190506020830392506116ff565b6001836020036101000a038019825116818451168082178552505050505050905001915050602060405180830381855afa158015611766573d6000803e3d6000fd5b5050506040513d602081101561177b57600080fd5b81019080805190602001909291905050506002600160405180828054600181600116156101000203166002900480156117eb5780601f106117c95761010080835404028352918201916117eb565b820191906000526020600020905b8154815290600101906020018083116117d7575b5050915050602060405180830381855afa15801561180d573d6000803e3d6000fd5b5050506040513d602081101561182257600080fd5b81019080805190602001909291905050507fd835a4b886370fb3f6a61a166e0aa61ba92fe711f8d3e5d1b80fdc37fb6559c2856040518080602001828103825283818151815260200191508051906020019080838360005b8381101561189557808201518184015260208101905061187a565b50505050905090810190601f1680156118c25780820380516001836020036101000a031916815260200191505b509250505060405180910390a3505050565b6000600380549050905090565b6118e9611be2565b15156118f457600080fd5b600260009054906101000a900460ff161515611978576040517f08c379a00000000000000000000000000000000000000000000000000000000081526004018080602001828103825260158152602001807f506c656173652073746172742073657373696f6e21000000000000000000000081525060200191505060405180910390fd5b6001600460006002846040518082805190602001908083835b6020831015156119b65780518252602082019150602081019050602083039250611991565b6001836020036101000a038019825116818451168082178552505050505050905001915050602060405180830381855afa1580156119f8573d6000803e3d6000fd5b5050506040513d6020811015611a0d57600080fd5b8101908080519060200190929190505050815260200190815260200160002060006101000a81548160ff0219169083151502179055506002816040518082805190602001908083835b602083101515611a7b5780518252602082019150602081019050602083039250611a56565b6001836020036101000a038019825116818451168082178552505050505050905001915050602060405180830381855afa158015611abd573d6000803e3d6000fd5b5050506040513d6020811015611ad257600080fd5b8101908080519060200190929190505050600260016040518082805460018160011615610100020316600290048015611b425780601f10611b20576101008083540402835291820191611b42565b820191906000526020600020905b815481529060010190602001808311611b2e575b5050915050602060405180830381855afa158015611b64573d6000803e3d6000fd5b5050506040513d6020811015611b7957600080fd5b81019080805190602001909291905050507ff71d47e39319b931c8ad8242d005ccac933bd0555db6ac7c991bfb395061727260405160405180910390a350565b60008060009054906101000a900473ffffffffffffffffffffffffffffffffffffffff16905090565b60008060009054906101000a900473ffffffffffffffffffffffffffffffffffffffff1673ffffffffffffffffffffffffffffffffffffffff163373ffffffffffffffffffffffffffffffffffffffff1614905090565b611c41611be2565b1515611c4c57600080fd5b8060019080519060200190611c62929190612325565b5050565b611c6e611be2565b1515611c7957600080fd5b600260009054906101000a900460ff161515611cfd576040517f08c379a00000000000000000000000000000000000000000000000000000000081526004018080602001828103825260158152602001807f506c656173652073746172742073657373696f6e21000000000000000000000081525060200191505060405180910390fd5b6000600460006002846040518082805190602001908083835b602083101515611d3b5780518252602082019150602081019050602083039250611d16565b6001836020036101000a038019825116818451168082178552505050505050905001915050602060405180830381855afa158015611d7d573d6000803e3d6000fd5b5050506040513d6020811015611d9257600080fd5b8101908080519060200190929190505050815260200190815260200160002060006101000a81548160ff0219169083151502179055506002816040518082805190602001908083835b602083101515611e005780518252602082019150602081019050602083039250611ddb565b6001836020036101000a038019825116818451168082178552505050505050905001915050602060405180830381855afa158015611e42573d6000803e3d6000fd5b5050506040513d6020811015611e5757600080fd5b8101908080519060200190929190505050600260016040518082805460018160011615610100020316600290048015611ec75780601f10611ea5576101008083540402835291820191611ec7565b820191906000526020600020905b815481529060010190602001808311611eb3575b5050915050602060405180830381855afa158015611ee9573d6000803e3d6000fd5b5050506040513d6020811015611efe57600080fd5b81019080805190602001909291905050507f42649a57ad6842f4d9bf2ba99df4fbbb1c85f4bd6967450a8e5fbf71b6b76eba60405160405180910390a350565b611f46611be2565b1515611f5157600080fd5b60008090505b600380549050811015612104576002836040518082805190602001908083835b602083101515611f9c5780518252602082019150602081019050602083039250611f77565b6001836020036101000a038019825116818451168082178552505050505050905001915050602060405180830381855afa158015611fde573d6000803e3d6000fd5b5050506040513d6020811015611ff357600080fd5b8101908080519060200190929190505050600260038381548110151561201557fe5b90600052602060002001604051808280546001816001161561010002031660029004801561207a5780601f1061205857610100808354040283529182019161207a565b820191906000526020600020905b815481529060010190602001808311612066575b5050915050602060405180830381855afa15801561209c573d6000803e3d6000fd5b5050506040513d60208110156120b157600080fd5b810190808051906020019092919050505014156120f757816003828154811015156120d857fe5b9060005260206000200190805190602001906120f5929190612325565b505b8080600101915050611f57565b505050565b612111611be2565b151561211c57600080fd5b6121258161222b565b50565b612130611be2565b151561213b57600080fd5b6001600260006101000a81548160ff0219169083151502179055506002600160405180828054600181600116156101000203166002900480156121b55780601f106121935761010080835404028352918201916121b5565b820191906000526020600020905b8154815290600101906020018083116121a1575b5050915050602060405180830381855afa1580156121d7573d6000803e3d6000fd5b5050506040513d60208110156121ec57600080fd5b81019080805190602001909291905050507f8eb8092e052baa9d1c120ae56039bcf6abe9a3429198dec2285c4a9872827de660405160405180910390a2565b600073ffffffffffffffffffffffffffffffffffffffff168173ffffffffffffffffffffffffffffffffffffffff161415151561226757600080fd5b8073ffffffffffffffffffffffffffffffffffffffff166000809054906101000a900473ffffffffffffffffffffffffffffffffffffffff1673ffffffffffffffffffffffffffffffffffffffff167f8be0079c531659141344cd1fd0a4f28419497f9722a3daafe3b4186f6b6457e060405160405180910390a3806000806101000a81548173ffffffffffffffffffffffffffffffffffffffff021916908373ffffffffffffffffffffffffffffffffffffffff16021790555050565b828054600181600116156101000203166002900490600052602060002090601f016020900481019282601f1061236657805160ff1916838001178555612394565b82800160010185558215612394579182015b82811115612393578251825591602001919060010190612378565b5b5090506123a191906123a5565b5090565b6123c791905b808211156123c35760008160009055506001016123ab565b5090565b9056fea165627a7a72305820bd4f798432cfd160fcf8169a20eb6438da50c4d6f3ece84a34ec74a1d823d0e20029",
  "source": "pragma solidity ^0.5.0;\n\nimport \"./Ownable.sol\";\n\ncontract EnySaTsiaVoting is Ownable {\n\n  bytes public name;\n  bool public sessionOpen;\n  bytes[] public questions;\n\n  mapping(bytes32 => bool) public voteOpen;\n  mapping(address => mapping(bytes32 => bytes)) public votes;\n\n  event StartVote(bytes32 indexed session, bytes32 indexed question);\n  event CloseVote(bytes32 indexed session, bytes32 indexed question);\n  event StartSession(bytes32 indexed session);\n  event CloseSession(bytes32 indexed session);\n  event Vote(bytes32 indexed session, bytes32 indexed question, bytes decision);\n  event CreateQuestion(bytes32 indexed session, bytes32 indexed question);\n\n  constructor(bytes memory _name) public {\n    name = _name;\n  }\n\n  modifier validQuestion(bytes memory question) {\n    require(\n      isValidQuestion(question),\n      \"This Question already exists!\"\n    );\n    _;\n  }\n\n  modifier sessionIsActive() {\n    require(\n      sessionOpen,\n      \"Please start session!\"\n    );\n    _;\n  }\n\n  modifier votingIsActive(bytes memory question) {\n    require(\n      voteOpen[sha256(question)],\n      \"Please start vote!\"\n    );\n    _;\n  }\n\n  function isValidQuestion(bytes memory question) public view returns(bool) {\n    for (uint i = 0; i < questions.length; i++) {\n      if (sha256(questions[i]) == sha256(question)) {\n        return false;\n      }\n    }\n    return true;\n  }\n\n  function changeSessionName(bytes memory _name) public onlyOwner {\n    name = _name;\n  }\n\n  function startSession() public onlyOwner {\n    sessionOpen = true;\n    emit StartSession(sha256(name));\n  }\n\n  function closeSession() public onlyOwner {\n    sessionOpen = false;\n    emit CloseSession(sha256(name));\n  }\n\n  function createQuestion(bytes memory question) public onlyOwner sessionIsActive validQuestion(question) {\n    questions.push(question);\n    emit CreateQuestion(sha256(name), sha256(question));\n  }\n\n  function changeQuestion(bytes memory question, bytes memory sentense) public onlyOwner {\n    for (uint i = 0; i < questions.length; i++) {\n      if (sha256(questions[i]) == sha256(question)) {\n        questions[i] = sentense;\n      }\n    }\n  }\n\n  function startVote(bytes memory question) public onlyOwner sessionIsActive {\n    voteOpen[sha256(question)] = true;\n    emit StartVote(sha256(name), sha256(question));\n  }\n\n  function closeVote(bytes memory question) public onlyOwner sessionIsActive {\n    voteOpen[sha256(question)] = false;\n    emit CloseVote(sha256(name), sha256(question));\n  }\n\n  function vote(bytes memory decision, bytes memory question) public sessionIsActive votingIsActive(question) {\n    votes[msg.sender][sha256(question)] = decision;\n    emit Vote(sha256(name), sha256(question), decision);\n  }\n\n  function countQuestions() public view returns(uint256) {\n    return questions.length;\n  }\n\n}\n",
  "sourcePath": "/Users/tsirysandratraina/Documents/github-projects/andrana/enysatsia-contracts/contracts/EnySaTsiaVoting.sol",
  "compiler": {
    "name": "solc",
    "version": "0.5.0+commit.1d4f565a.Emscripten.clang"
  },
  "schemaVersion": "3.0.0",
  "updatedAt": "2019-01-01T18:13:53.921Z",
  "devdoc": {
    "methods": {
      "isOwner()": {
        "return": "true if `msg.sender` is the owner of the contract."
      },
      "owner()": {
        "return": "the address of the owner."
      },
      "renounceOwnership()": {
        "details": "Allows the current owner to relinquish control of the contract."
      },
      "transferOwnership(address)": {
        "details": "Allows the current owner to transfer control of the contract to a newOwner.",
        "params": {
          "newOwner": "The address to transfer ownership to."
        }
      }
    }
  },
  "userdoc": {
    "methods": {
      "renounceOwnership()": {
        "notice": "Renouncing to ownership will leave the contract without an owner. It will not be possible to call the functions with the `onlyOwner` modifier anymore."
      }
    }
  }
}